{
  "transactions": [
    {
      "hash": "0xf3f21b3931c9a850e47f6a785b6267614b11d09f471463fbc72599d7019cf6f7",
      "transactionType": "CALL",
      "contractName": null,
      "contractAddress": "0x7cdf84c1d0915748df0f1da6d92701ac6a903e41",
      "function": "createAccount(uint256,address,bytes)",
      "arguments": [
        "1",
        "0xd577C0746c19DeB788c0D698EcAf66721DC2F7A4",
        "0xd78b5013757ea4a7841811ef770711e6248dc282"
      ],
      "transaction": {
        "from": "0xd78b5013757ea4a7841811ef770711e6248dc282",
        "to": "0x7cdf84c1d0915748df0f1da6d92701ac6a903e41",
        "gas": "0x50238",
        "value": "0x0",
        "input": "0x6aff41d30000000000000000000000000000000000000000000000000000000000000001000000000000000000000000d577c0746c19deb788c0d698ecaf66721dc2f7a400000000000000000000000000000000000000000000000000000000000000600000000000000000000000000000000000000000000000000000000000000014d78b5013757ea4a7841811ef770711e6248dc282000000000000000000000000",
        "nonce": "0x94",
        "chainId": "0xaa36a7"
      },
      "additionalContracts": [
        {
          "transactionType": "CREATE2",
          "address": "0x67ce34bc421060b8594cdd361ce201868845045b",
          "initCode": "0x60806040526102c68038038061001481610188565b928339810190604081830312610183578051906001600160a01b03821690818303610183576020810151906001600160401b038211610183570183601f820112156101835780519061006d610068836101c3565b610188565b94828652602083830101116101835760005b82811061016e575050602060009185010152813b1561015a577f360894a13ba1a3210667c828492db98dca3e2076cc3735a920a3ca505d382bbc80546001600160a01b031916821790557fbc7cd75a20ee27fd9adebab32041f755214dbc6bffa90cc0225b39da2e5c2d3b600080a28151156101415760008083602061012995519101845af43d15610139573d91610119610068846101c3565b9283523d6000602085013e6101de565b505b604051608690816102408239f35b6060916101de565b5050341561012b5763b398979f60e01b60005260046000fd5b634c9c8ce360e01b60005260045260246000fd5b8060208092840101518282890101520161007f565b600080fd5b6040519190601f01601f191682016001600160401b038111838210176101ad57604052565b634e487b7160e01b600052604160045260246000fd5b6001600160401b0381116101ad57601f01601f191660200190565b9061020457508051156101f357805190602001fd5b63d6bda27560e01b60005260046000fd5b81511580610236575b610215575090565b639996b31560e01b60009081526001600160a01b0391909116600452602490fd5b50803b1561020d56fe60806040527f360894a13ba1a3210667c828492db98dca3e2076cc3735a920a3ca505d382bbc5460009081906001600160a01b0316368280378136915af43d6000803e15604b573d6000f35b3d6000fdfea26469706673582212206ec8f60176c3f044963de099cc649162c36ba50216c707b7331e2c565503617064736f6c634300081b0033000000000000000000000000526bf866ad0ad63b71232f671bf1d17038d1ea52000000000000000000000000000000000000000000000000000000000000004000000000000000000000000000000000000000000000000000000000000000a4cf7a1d770000000000000000000000000000000071727de22e5e9d8baf0edac6f37da032000000000000000000000000d577c0746c19deb788c0d698ecaf66721dc2f7a400000000000000000000000000000000000000000000000000000000000000600000000000000000000000000000000000000000000000000000000000000014d78b5013757ea4a7841811ef770711e6248dc28200000000000000000000000000000000000000000000000000000000000000000000000000000000"
        }
      ],
      "isFixedGasLimit": false
    }
  ],
  "receipts": [
    {
      "status": "0x1",
      "cumulativeGasUsed": "0xbf06e4",
      "logs": [
        {
          "address": "0x67ce34bc421060b8594cdd361ce201868845045b",
          "topics": [
            "0xbc7cd75a20ee27fd9adebab32041f755214dbc6bffa90cc0225b39da2e5c2d3b",
            "0x000000000000000000000000526bf866ad0ad63b71232f671bf1d17038d1ea52"
          ],
          "data": "0x",
          "blockHash": "0xa40414ad07c8a8d476c4059a489db31670948ad0b9dbed7053b8769ed96c3869",
          "blockNumber": "0x6b55c7",
          "transactionHash": "0xf3f21b3931c9a850e47f6a785b6267614b11d09f471463fbc72599d7019cf6f7",
          "transactionIndex": "0x2f",
          "logIndex": "0x40",
          "removed": false
        },
        {
          "address": "0xd577c0746c19deb788c0d698ecaf66721dc2f7a4",
          "topics": [
            "0xa5e1f8b4009110f5525798d04ae2125421a12d0590aa52c13682ff1bd3c492ca",
            "0x00000000000000000000000067ce34bc421060b8594cdd361ce201868845045b",
            "0x000000000000000000000000d78b5013757ea4a7841811ef770711e6248dc282"
          ],
          "data": "0x",
          "blockHash": "0xa40414ad07c8a8d476c4059a489db31670948ad0b9dbed7053b8769ed96c3869",
          "blockNumber": "0x6b55c7",
          "transactionHash": "0xf3f21b3931c9a850e47f6a785b6267614b11d09f471463fbc72599d7019cf6f7",
          "transactionIndex": "0x2f",
          "logIndex": "0x41",
          "removed": false
        },
        {
          "address": "0x67ce34bc421060b8594cdd361ce201868845045b",
          "topics": [
            "0x9b44a2c7f9f0b5aa4e7da60d8a2325796c57f93a45559d66515743ffbd8a6103",
            "0x0000000000000000000000000000000071727de22e5e9d8baf0edac6f37da032"
          ],
          "data": "0x",
          "blockHash": "0xa40414ad07c8a8d476c4059a489db31670948ad0b9dbed7053b8769ed96c3869",
          "blockNumber": "0x6b55c7",
          "transactionHash": "0xf3f21b3931c9a850e47f6a785b6267614b11d09f471463fbc72599d7019cf6f7",
          "transactionIndex": "0x2f",
          "logIndex": "0x42",
          "removed": false
        }
      ],
      "logsBloom": "0x00004000004000000000000000000000400000000000002000100000000100000000000000000000000000000000000200000000080000200000000000000000010000000000000004000000000002000000000000000000000000000000000000000000000000000000000000000000000000006000000000000000000000000000000000000002000000000000000000001000000028000000000000000000000000000080000400000000000000000000000000000000000000000000000000000020000000100000000000000000000000000000020000001000000000000000000000000000000000000000000000800000000000002100000000000000",
      "type": "0x2",
      "transactionHash": "0xf3f21b3931c9a850e47f6a785b6267614b11d09f471463fbc72599d7019cf6f7",
      "transactionIndex": "0x2f",
      "blockHash": "0xa40414ad07c8a8d476c4059a489db31670948ad0b9dbed7053b8769ed96c3869",
      "blockNumber": "0x6b55c7",
      "gasUsed": "0x3a08f",
      "effectiveGasPrice": "0x178c9a417",
      "from": "0xd78b5013757ea4a7841811ef770711e6248dc282",
      "to": "0x7cdf84c1d0915748df0f1da6d92701ac6a903e41",
      "contractAddress": null
    }
  ],
  "libraries": [],
  "pending": [],
  "returns": {},
  "timestamp": 1731040023,
  "chain": 11155111,
  "commit": "5a343b9"
}