{
  "transactions": [
    {
      "hash": "0x33ec844a1037b3c82c919a1b274a8bad2e003feb364a73c3c8265d7ad13f3819",
      "transactionType": "CALL",
      "contractName": null,
      "contractAddress": "0xc2acdb852f4a1c8d09ae3b1b53b093f13ea0cfa6",
      "function": "createAccount(uint256,address,bytes)",
      "arguments": [
        "1",
        "0xd577C0746c19DeB788c0D698EcAf66721DC2F7A4",
        "0xd78b5013757ea4a7841811ef770711e6248dc282"
      ],
      "transaction": {
        "from": "0xd78b5013757ea4a7841811ef770711e6248dc282",
        "to": "0xc2acdb852f4a1c8d09ae3b1b53b093f13ea0cfa6",
        "gas": "0x4816e",
        "value": "0x0",
        "input": "0x6aff41d30000000000000000000000000000000000000000000000000000000000000001000000000000000000000000d577c0746c19deb788c0d698ecaf66721dc2f7a400000000000000000000000000000000000000000000000000000000000000600000000000000000000000000000000000000000000000000000000000000014d78b5013757ea4a7841811ef770711e6248dc282000000000000000000000000",
        "nonce": "0x90",
        "chainId": "0xaa36a7"
      },
      "additionalContracts": [
        {
          "transactionType": "CREATE2",
          "address": "0xfb290e1972b7ddfb2b2f807d357e9f80744f2381",
          "initCode": "0x60806040526102c68038038061001481610188565b928339810190604081830312610183578051906001600160a01b03821690818303610183576020810151906001600160401b038211610183570183601f820112156101835780519061006d610068836101c3565b610188565b94828652602083830101116101835760005b82811061016e575050602060009185010152813b1561015a577f360894a13ba1a3210667c828492db98dca3e2076cc3735a920a3ca505d382bbc80546001600160a01b031916821790557fbc7cd75a20ee27fd9adebab32041f755214dbc6bffa90cc0225b39da2e5c2d3b600080a28151156101415760008083602061012995519101845af43d15610139573d91610119610068846101c3565b9283523d6000602085013e6101de565b505b604051608690816102408239f35b6060916101de565b5050341561012b5763b398979f60e01b60005260046000fd5b634c9c8ce360e01b60005260045260246000fd5b8060208092840101518282890101520161007f565b600080fd5b6040519190601f01601f191682016001600160401b038111838210176101ad57604052565b634e487b7160e01b600052604160045260246000fd5b6001600160401b0381116101ad57601f01601f191660200190565b9061020457508051156101f357805190602001fd5b63d6bda27560e01b60005260046000fd5b81511580610236575b610215575090565b639996b31560e01b60009081526001600160a01b0391909116600452602490fd5b50803b1561020d56fe60806040527f360894a13ba1a3210667c828492db98dca3e2076cc3735a920a3ca505d382bbc5460009081906001600160a01b0316368280378136915af43d6000803e15604b573d6000f35b3d6000fdfea26469706673582212206ec8f60176c3f044963de099cc649162c36ba50216c707b7331e2c565503617064736f6c634300081b0033000000000000000000000000e58d3a1b0b0094a521d8ad5796bee5b12552330d00000000000000000000000000000000000000000000000000000000000000400000000000000000000000000000000000000000000000000000000000000084d1f57894000000000000000000000000d577c0746c19deb788c0d698ecaf66721dc2f7a400000000000000000000000000000000000000000000000000000000000000400000000000000000000000000000000000000000000000000000000000000014d78b5013757ea4a7841811ef770711e6248dc28200000000000000000000000000000000000000000000000000000000000000000000000000000000"
        }
      ],
      "isFixedGasLimit": false
    }
  ],
  "receipts": [
    {
      "status": "0x1",
      "cumulativeGasUsed": "0x67116a",
      "logs": [
        {
          "address": "0xfb290e1972b7ddfb2b2f807d357e9f80744f2381",
          "topics": [
            "0xbc7cd75a20ee27fd9adebab32041f755214dbc6bffa90cc0225b39da2e5c2d3b",
            "0x000000000000000000000000e58d3a1b0b0094a521d8ad5796bee5b12552330d"
          ],
          "data": "0x",
          "blockHash": "0xbe3fcd1a529f222fc4826704c5862528fde731c3d4b653fdc08424d387176e58",
          "blockNumber": "0x6b43f3",
          "transactionHash": "0x33ec844a1037b3c82c919a1b274a8bad2e003feb364a73c3c8265d7ad13f3819",
          "transactionIndex": "0x2a",
          "logIndex": "0x59",
          "removed": false
        },
        {
          "address": "0xd577c0746c19deb788c0d698ecaf66721dc2f7a4",
          "topics": [
            "0xa5e1f8b4009110f5525798d04ae2125421a12d0590aa52c13682ff1bd3c492ca",
            "0x000000000000000000000000fb290e1972b7ddfb2b2f807d357e9f80744f2381",
            "0x000000000000000000000000d78b5013757ea4a7841811ef770711e6248dc282"
          ],
          "data": "0x",
          "blockHash": "0xbe3fcd1a529f222fc4826704c5862528fde731c3d4b653fdc08424d387176e58",
          "blockNumber": "0x6b43f3",
          "transactionHash": "0x33ec844a1037b3c82c919a1b274a8bad2e003feb364a73c3c8265d7ad13f3819",
          "transactionIndex": "0x2a",
          "logIndex": "0x5a",
          "removed": false
        }
      ],
      "logsBloom": "0x00004000000000000000000000000000400000000000000000102000000000000000000000000000000000000000000200000000080000000000000000000000000000000000000000000000000002000000000000000001000000000000000000000000000000010000000000000000000000002000000000000000000000000000000000000000000000000080000000001002000008000000000000000000000000000000000000000000000000000000000000000000002000000000000000000020000000100000000000000000000000000000000000001000000000000000010040000000000000000000008000000000000000000000000000000000",
      "type": "0x2",
      "transactionHash": "0x33ec844a1037b3c82c919a1b274a8bad2e003feb364a73c3c8265d7ad13f3819",
      "transactionIndex": "0x2a",
      "blockHash": "0xbe3fcd1a529f222fc4826704c5862528fde731c3d4b653fdc08424d387176e58",
      "blockNumber": "0x6b43f3",
      "gasUsed": "0x3434e",
      "effectiveGasPrice": "0x2c0797ad5",
      "from": "0xd78b5013757ea4a7841811ef770711e6248dc282",
      "to": "0xc2acdb852f4a1c8d09ae3b1b53b093f13ea0cfa6",
      "contractAddress": null
    }
  ],
  "libraries": [],
  "pending": [],
  "returns": {},
  "timestamp": 1730978111,
  "chain": 11155111,
  "commit": "a9c8a03"
}